{
  "contractName": "TaskManager",
  "abi": [
    {
      "inputs": [],
      "stateMutability": "nonpayable",
      "type": "constructor"
    },
    {
      "anonymous": false,
      "inputs": [
        {
          "indexed": false,
          "internalType": "address",
          "name": "owner",
          "type": "address"
        },
        {
          "indexed": false,
          "internalType": "string",
          "name": "name",
          "type": "string"
        },
        {
          "indexed": false,
          "internalType": "enum TaskManager.TaskPhase",
          "name": "phase",
          "type": "uint8"
        },
        {
          "indexed": false,
          "internalType": "uint256",
          "name": "priority",
          "type": "uint256"
        }
      ],
      "name": "TaskAdded",
      "type": "event"
    },
    {
      "inputs": [],
      "name": "nTasks",
      "outputs": [
        {
          "internalType": "uint256",
          "name": "",
          "type": "uint256"
        }
      ],
      "stateMutability": "view",
      "type": "function",
      "constant": true
    },
    {
      "inputs": [
        {
          "internalType": "uint256",
          "name": "_taskIndex",
          "type": "uint256"
        }
      ],
      "name": "getTask",
      "outputs": [
        {
          "internalType": "address",
          "name": "owner",
          "type": "address"
        },
        {
          "internalType": "string",
          "name": "name",
          "type": "string"
        },
        {
          "internalType": "enum TaskManager.TaskPhase",
          "name": "phase",
          "type": "uint8"
        },
        {
          "internalType": "uint256",
          "name": "priority",
          "type": "uint256"
        }
      ],
      "stateMutability": "view",
      "type": "function",
      "constant": true
    },
    {
      "inputs": [],
      "name": "listMyTasks",
      "outputs": [
        {
          "internalType": "uint256[]",
          "name": "",
          "type": "uint256[]"
        }
      ],
      "stateMutability": "view",
      "type": "function",
      "constant": true
    },
    {
      "inputs": [
        {
          "internalType": "string",
          "name": "_name",
          "type": "string"
        },
        {
          "internalType": "enum TaskManager.TaskPhase",
          "name": "_phase",
          "type": "uint8"
        },
        {
          "internalType": "uint256",
          "name": "_priority",
          "type": "uint256"
        }
      ],
      "name": "addTask",
      "outputs": [
        {
          "internalType": "uint256",
          "name": "index",
          "type": "uint256"
        }
      ],
      "stateMutability": "nonpayable",
      "type": "function"
    },
    {
      "inputs": [
        {
          "internalType": "uint256",
          "name": "_taskIndex",
          "type": "uint256"
        },
        {
          "internalType": "enum TaskManager.TaskPhase",
          "name": "_phase",
          "type": "uint8"
        }
      ],
      "name": "updatePhase",
      "outputs": [],
      "stateMutability": "nonpayable",
      "type": "function"
    }
  ],
  "bytecode": "0x60806040523480156200001157600080fd5b5060008081905550620000636040518060400160405280601381526020017f437265617465205461736b204d616e616765720000000000000000000000000081525060026001620000b560201b60201c565b50620000ae6040518060400160405280600781526020017f506c61792043530000000000000000000000000000000000000000000000000081525060006005620000b560201b60201c565b5062000944565b600060018210158015620000ca575060058211155b6200010c576040517f08c379a0000000000000000000000000000000000000000000000000000000008152600401620001039062000362565b60405180910390fd5b600060405180608001604052803373ffffffffffffffffffffffffffffffffffffffff16815260200186815260200185600581111562000151576200015062000384565b5b8152602001848152509050600181908060018154018082558091505060019003906000526020600020906004020160009091909190915060008201518160000160006101000a81548173ffffffffffffffffffffffffffffffffffffffff021916908373ffffffffffffffffffffffffffffffffffffffff1602179055506020820151816001019081620001e691906200062d565b5060408201518160020160006101000a81548160ff0219169083600581111562000215576200021462000384565b5b02179055506060820151816003015550506000808154809291906200023a9062000743565b91905055506001808054905062000252919062000790565b9150600260003373ffffffffffffffffffffffffffffffffffffffff1673ffffffffffffffffffffffffffffffffffffffff1681526020019081526020016000208290806001815401808255809150506001900390600052602060002001600090919091909150557f6f01dc0a3f1209ed3a201b417e08a69b7ab49236895cbcfa0f62b481101d7e1033868686604051620002f19493929190620008f0565b60405180910390a1509392505050565b600082825260208201905092915050565b7f7072696f72697479206d757374206265206265747765656e203120616e642035600082015250565b60006200034a60208362000301565b9150620003578262000312565b602082019050919050565b600060208201905081810360008301526200037d816200033b565b9050919050565b7f4e487b7100000000000000000000000000000000000000000000000000000000600052602160045260246000fd5b600081519050919050565b7f4e487b7100000000000000000000000000000000000000000000000000000000600052604160045260246000fd5b7f4e487b7100000000000000000000000000000000000000000000000000000000600052602260045260246000fd5b600060028204905060018216806200043557607f821691505b6020821081036200044b576200044a620003ed565b5b50919050565b60008190508160005260206000209050919050565b60006020601f8301049050919050565b600082821b905092915050565b600060088302620004b57fffffffffffffffffffffffffffffffffffffffffffffffffffffffffffffffff8262000476565b620004c1868362000476565b95508019841693508086168417925050509392505050565b6000819050919050565b6000819050919050565b60006200050e620005086200050284620004d9565b620004e3565b620004d9565b9050919050565b6000819050919050565b6200052a83620004ed565b62000542620005398262000515565b84845462000483565b825550505050565b600090565b620005596200054a565b620005668184846200051f565b505050565b5b818110156200058e57620005826000826200054f565b6001810190506200056c565b5050565b601f821115620005dd57620005a78162000451565b620005b28462000466565b81016020851015620005c2578190505b620005da620005d18562000466565b8301826200056b565b50505b505050565b600082821c905092915050565b60006200060260001984600802620005e2565b1980831691505092915050565b60006200061d8383620005ef565b9150826002028217905092915050565b6200063882620003b3565b67ffffffffffffffff811115620006545762000653620003be565b5b6200066082546200041c565b6200066d82828562000592565b600060209050601f831160018114620006a5576000841562000690578287015190505b6200069c85826200060f565b8655506200070c565b601f198416620006b58662000451565b60005b82811015620006df57848901518255600182019150602085019450602081019050620006b8565b86831015620006ff5784890151620006fb601f891682620005ef565b8355505b6001600288020188555050505b505050505050565b7f4e487b7100000000000000000000000000000000000000000000000000000000600052601160045260246000fd5b60006200075082620004d9565b91507fffffffffffffffffffffffffffffffffffffffffffffffffffffffffffffffff820362000785576200078462000714565b5b600182019050919050565b60006200079d82620004d9565b9150620007aa83620004d9565b9250828203905081811115620007c557620007c462000714565b5b92915050565b600073ffffffffffffffffffffffffffffffffffffffff82169050919050565b6000620007f882620007cb565b9050919050565b6200080a81620007eb565b82525050565b60005b838110156200083057808201518184015260208101905062000813565b60008484015250505050565b6000601f19601f8301169050919050565b60006200085a82620003b3565b62000866818562000301565b93506200087881856020860162000810565b62000883816200083c565b840191505092915050565b60068110620008a257620008a162000384565b5b50565b6000819050620008b5826200088e565b919050565b6000620008c782620008a5565b9050919050565b620008d981620008ba565b82525050565b620008ea81620004d9565b82525050565b6000608082019050620009076000830187620007ff565b81810360208301526200091b81866200084d565b90506200092c6040830185620008ce565b6200093b6060830184620008df565b95945050505050565b610f9380620009546000396000f3fe608060405234801561001057600080fd5b50600436106100575760003560e01c80631d65e77e1461005c5780633e625c401461008f578063a082a819146100bf578063e2c53075146100dd578063e95528f1146100fb575b600080fd5b61007660048036038101906100719190610665565b610117565b60405161008694939291906107e9565b60405180910390f35b6100a960048036038101906100a4919061098f565b61027a565b6040516100b691906109fe565b60405180910390f35b6100c76104b4565b6040516100d49190610ad7565b60405180910390f35b6100e5610549565b6040516100f291906109fe565b60405180910390f35b61011560048036038101906101109190610af9565b61054f565b005b600060606000806001858154811061013257610131610b39565b5b906000526020600020906004020160000160009054906101000a900473ffffffffffffffffffffffffffffffffffffffff1693506001858154811061017a57610179610b39565b5b9060005260206000209060040201600101805461019690610b97565b80601f01602080910402602001604051908101604052809291908181526020018280546101c290610b97565b801561020f5780601f106101e45761010080835404028352916020019161020f565b820191906000526020600020905b8154815290600101906020018083116101f257829003601f168201915b505050505092506001858154811061022a57610229610b39565b5b906000526020600020906004020160020160009054906101000a900460ff1691506001858154811061025f5761025e610b39565b5b90600052602060002090600402016003015490509193509193565b60006001821015801561028e575060058211155b6102cd576040517f08c379a00000000000000000000000000000000000000000000000000000000081526004016102c490610c14565b60405180910390fd5b600060405180608001604052803373ffffffffffffffffffffffffffffffffffffffff16815260200186815260200185600581111561030f5761030e610763565b5b8152602001848152509050600181908060018154018082558091505060019003906000526020600020906004020160009091909190915060008201518160000160006101000a81548173ffffffffffffffffffffffffffffffffffffffff021916908373ffffffffffffffffffffffffffffffffffffffff16021790555060208201518160010190816103a29190610de0565b5060408201518160020160006101000a81548160ff021916908360058111156103ce576103cd610763565b5b02179055506060820151816003015550506000808154809291906103f190610ee1565b9190505550600180805490506104079190610f29565b9150600260003373ffffffffffffffffffffffffffffffffffffffff1673ffffffffffffffffffffffffffffffffffffffff1681526020019081526020016000208290806001815401808255809150506001900390600052602060002001600090919091909150557f6f01dc0a3f1209ed3a201b417e08a69b7ab49236895cbcfa0f62b481101d7e10338686866040516104a494939291906107e9565b60405180910390a1509392505050565b6060600260003373ffffffffffffffffffffffffffffffffffffffff1673ffffffffffffffffffffffffffffffffffffffff16815260200190815260200160002080548060200260200160405190810160405280929190818152602001828054801561053f57602002820191906000526020600020905b81548152602001906001019080831161052b575b5050505050905090565b60005481565b813373ffffffffffffffffffffffffffffffffffffffff166001828154811061057b5761057a610b39565b5b906000526020600020906004020160000160009054906101000a900473ffffffffffffffffffffffffffffffffffffffff1673ffffffffffffffffffffffffffffffffffffffff16036106165781600184815481106105dd576105dc610b39565b5b906000526020600020906004020160020160006101000a81548160ff021916908360058111156106105761060f610763565b5b02179055505b505050565b6000604051905090565b600080fd5b600080fd5b6000819050919050565b6106428161062f565b811461064d57600080fd5b50565b60008135905061065f81610639565b92915050565b60006020828403121561067b5761067a610625565b5b600061068984828501610650565b91505092915050565b600073ffffffffffffffffffffffffffffffffffffffff82169050919050565b60006106bd82610692565b9050919050565b6106cd816106b2565b82525050565b600081519050919050565b600082825260208201905092915050565b60005b8381101561070d5780820151818401526020810190506106f2565b60008484015250505050565b6000601f19601f8301169050919050565b6000610735826106d3565b61073f81856106de565b935061074f8185602086016106ef565b61075881610719565b840191505092915050565b7f4e487b7100000000000000000000000000000000000000000000000000000000600052602160045260246000fd5b600681106107a3576107a2610763565b5b50565b60008190506107b482610792565b919050565b60006107c4826107a6565b9050919050565b6107d4816107b9565b82525050565b6107e38161062f565b82525050565b60006080820190506107fe60008301876106c4565b8181036020830152610810818661072a565b905061081f60408301856107cb565b61082c60608301846107da565b95945050505050565b600080fd5b600080fd5b7f4e487b7100000000000000000000000000000000000000000000000000000000600052604160045260246000fd5b61087782610719565b810181811067ffffffffffffffff821117156108965761089561083f565b5b80604052505050565b60006108a961061b565b90506108b5828261086e565b919050565b600067ffffffffffffffff8211156108d5576108d461083f565b5b6108de82610719565b9050602081019050919050565b82818337600083830152505050565b600061090d610908846108ba565b61089f565b9050828152602081018484840111156109295761092861083a565b5b6109348482856108eb565b509392505050565b600082601f83011261095157610950610835565b5b81356109618482602086016108fa565b91505092915050565b6006811061097757600080fd5b50565b6000813590506109898161096a565b92915050565b6000806000606084860312156109a8576109a7610625565b5b600084013567ffffffffffffffff8111156109c6576109c561062a565b5b6109d28682870161093c565b93505060206109e38682870161097a565b92505060406109f486828701610650565b9150509250925092565b6000602082019050610a1360008301846107da565b92915050565b600081519050919050565b600082825260208201905092915050565b6000819050602082019050919050565b610a4e8161062f565b82525050565b6000610a608383610a45565b60208301905092915050565b6000602082019050919050565b6000610a8482610a19565b610a8e8185610a24565b9350610a9983610a35565b8060005b83811015610aca578151610ab18882610a54565b9750610abc83610a6c565b925050600181019050610a9d565b5085935050505092915050565b60006020820190508181036000830152610af18184610a79565b905092915050565b60008060408385031215610b1057610b0f610625565b5b6000610b1e85828601610650565b9250506020610b2f8582860161097a565b9150509250929050565b7f4e487b7100000000000000000000000000000000000000000000000000000000600052603260045260246000fd5b7f4e487b7100000000000000000000000000000000000000000000000000000000600052602260045260246000fd5b60006002820490506001821680610baf57607f821691505b602082108103610bc257610bc1610b68565b5b50919050565b7f7072696f72697479206d757374206265206265747765656e203120616e642035600082015250565b6000610bfe6020836106de565b9150610c0982610bc8565b602082019050919050565b60006020820190508181036000830152610c2d81610bf1565b9050919050565b60008190508160005260206000209050919050565b60006020601f8301049050919050565b600082821b905092915050565b600060088302610c967fffffffffffffffffffffffffffffffffffffffffffffffffffffffffffffffff82610c59565b610ca08683610c59565b95508019841693508086168417925050509392505050565b6000819050919050565b6000610cdd610cd8610cd38461062f565b610cb8565b61062f565b9050919050565b6000819050919050565b610cf783610cc2565b610d0b610d0382610ce4565b848454610c66565b825550505050565b600090565b610d20610d13565b610d2b818484610cee565b505050565b5b81811015610d4f57610d44600082610d18565b600181019050610d31565b5050565b601f821115610d9457610d6581610c34565b610d6e84610c49565b81016020851015610d7d578190505b610d91610d8985610c49565b830182610d30565b50505b505050565b600082821c905092915050565b6000610db760001984600802610d99565b1980831691505092915050565b6000610dd08383610da6565b9150826002028217905092915050565b610de9826106d3565b67ffffffffffffffff811115610e0257610e0161083f565b5b610e0c8254610b97565b610e17828285610d53565b600060209050601f831160018114610e4a5760008415610e38578287015190505b610e428582610dc4565b865550610eaa565b601f198416610e5886610c34565b60005b82811015610e8057848901518255600182019150602085019450602081019050610e5b565b86831015610e9d5784890151610e99601f891682610da6565b8355505b6001600288020188555050505b505050505050565b7f4e487b7100000000000000000000000000000000000000000000000000000000600052601160045260246000fd5b6000610eec8261062f565b91507fffffffffffffffffffffffffffffffffffffffffffffffffffffffffffffffff8203610f1e57610f1d610eb2565b5b600182019050919050565b6000610f348261062f565b9150610f3f8361062f565b9250828203905081811115610f5757610f56610eb2565b5b9291505056fea2646970667358221220f2bbcb5ee424e264ea8b23fc83a0c73b97f34dddafea1c2f9252f756aabe2a3964736f6c63430008100033",
  "immutableReferences": {},
  "source": "// SPDX-License-Identifier: MIT\npragma solidity 0.8.16;\n\ncontract TaskManager {\n    uint256 public nTasks;\n\n    // enum TaskPhase {ToDo = 0, InProgress = 1, Done = 2, ...}\n    enum TaskPhase {\n        ToDo,\n        InProgress,\n        Done,\n        Blocked,\n        Postponed,\n        Canceled\n    }\n\n    struct TaskStruct {\n        address owner;\n        string name;\n        TaskPhase phase;\n        // Priority 1-5: 1 higher, 5 less important\n        uint256 priority;\n    }\n\n    TaskStruct[] private tasks;\n    // TaskStruct[] public tasks;\n\n    mapping(address => uint256[]) private myTasks;\n    // mapping (address => uint[]) public myTasks;\n\n    event TaskAdded(\n        address owner,\n        string name,\n        TaskPhase phase,\n        uint256 priority\n    );\n\n    modifier onlyOwner(uint256 _taskIndex) {\n        if (tasks[_taskIndex].owner == msg.sender) {\n            _;\n        }\n    }\n\n    constructor() {\n        nTasks = 0;\n        addTask(\"Create Task Manager\", TaskPhase.Done, 1);\n        addTask(\"Play CS\", TaskPhase.ToDo, 5);\n    }\n\n    function getTask(uint256 _taskIndex)\n        public\n        view\n        returns (\n            address owner,\n            string memory name,\n            TaskPhase phase,\n            uint256 priority\n        )\n    {\n        owner = tasks[_taskIndex].owner;\n        name = tasks[_taskIndex].name;\n        phase = tasks[_taskIndex].phase;\n        priority = tasks[_taskIndex].priority;\n    }\n\n    function listMyTasks() public view returns (uint256[] memory) {\n        return myTasks[msg.sender];\n    }\n\n    function addTask(\n        string memory _name,\n        TaskPhase _phase,\n        uint256 _priority\n    ) public returns (uint256 index) {\n        require(\n            (_priority >= 1 && _priority <= 5),\n            \"priority must be between 1 and 5\"\n        );\n\n        TaskStruct memory taskAux = TaskStruct({\n            owner: msg.sender,\n            name: _name,\n            phase: _phase,\n            priority: _priority\n        });\n\n        tasks.push(taskAux);\n        nTasks++;\n\n        index = tasks.length - 1;\n        myTasks[msg.sender].push(index);\n        emit TaskAdded(msg.sender, _name, _phase, _priority);\n    }\n\n    function updatePhase(uint256 _taskIndex, TaskPhase _phase)\n        public\n        onlyOwner(_taskIndex)\n    {\n        tasks[_taskIndex].phase = _phase;\n    }\n}\n",
  "sourcePath": "/home/jeferson/Developer/Work/python/todo-blockchain/contracts/TaskManager.sol",
  "compiler": {
    "name": "solc",
    "version": "0.8.16+commit.07a7930e.Emscripten.clang"
  },
  "schemaVersion": "3.4.9",
  "updatedAt": "2022-08-19T00:16:03.067Z",
  "networkType": "ethereum",
  "devdoc": {
    "kind": "dev",
    "methods": {},
    "version": 1
  },
  "userdoc": {
    "kind": "user",
    "methods": {},
    "version": 1
  }
}